{
  "contractName": "DAO",
  "abi": [
    {
      "inputs": [
        {
          "internalType": "address",
          "name": "_govToken",
          "type": "address"
        }
      ],
      "stateMutability": "nonpayable",
      "type": "constructor"
    },
    {
      "anonymous": false,
      "inputs": [
        {
          "indexed": false,
          "internalType": "address",
          "name": "oldOwner",
          "type": "address"
        },
        {
          "indexed": false,
          "internalType": "address",
          "name": "newOwner",
          "type": "address"
        }
      ],
      "name": "OwnerChanged",
      "type": "event"
    },
    {
      "anonymous": false,
      "inputs": [
        {
          "indexed": false,
          "internalType": "uint256",
          "name": "oldVotingPeriod",
          "type": "uint256"
        },
        {
          "indexed": false,
          "internalType": "uint256",
          "name": "newVotingPeriod",
          "type": "uint256"
        }
      ],
      "name": "VotingPeriodChanged",
      "type": "event"
    },
    {
      "inputs": [],
      "name": "MIN_SHARES_TO_CREATE_PROPOSAL",
      "outputs": [
        {
          "internalType": "uint256",
          "name": "",
          "type": "uint256"
        }
      ],
      "stateMutability": "view",
      "type": "function"
    },
    {
      "inputs": [],
      "name": "TIME_PERIOD",
      "outputs": [
        {
          "internalType": "uint256",
          "name": "",
          "type": "uint256"
        }
      ],
      "stateMutability": "view",
      "type": "function"
    },
    {
      "inputs": [],
      "name": "govToken",
      "outputs": [
        {
          "internalType": "contract IERC20",
          "name": "",
          "type": "address"
        }
      ],
      "stateMutability": "view",
      "type": "function"
    },
    {
      "inputs": [],
      "name": "owner",
      "outputs": [
        {
          "internalType": "address",
          "name": "",
          "type": "address"
        }
      ],
      "stateMutability": "view",
      "type": "function"
    },
    {
      "inputs": [
        {
          "internalType": "bytes32",
          "name": "",
          "type": "bytes32"
        }
      ],
      "name": "proposals",
      "outputs": [
        {
          "internalType": "bytes32",
          "name": "hash",
          "type": "bytes32"
        },
        {
          "internalType": "address",
          "name": "author",
          "type": "address"
        },
        {
          "internalType": "uint256",
          "name": "votesSUPPORT",
          "type": "uint256"
        },
        {
          "internalType": "uint256",
          "name": "votesREJECT",
          "type": "uint256"
        },
        {
          "internalType": "uint256",
          "name": "createdAt",
          "type": "uint256"
        },
        {
          "internalType": "enum DAO.STATUS",
          "name": "status",
          "type": "uint8"
        }
      ],
      "stateMutability": "view",
      "type": "function"
    },
    {
      "inputs": [
        {
          "internalType": "address",
          "name": "",
          "type": "address"
        }
      ],
      "name": "shares",
      "outputs": [
        {
          "internalType": "uint256",
          "name": "",
          "type": "uint256"
        }
      ],
      "stateMutability": "view",
      "type": "function"
    },
    {
      "inputs": [
        {
          "internalType": "address",
          "name": "",
          "type": "address"
        },
        {
          "internalType": "bytes32",
          "name": "",
          "type": "bytes32"
        }
      ],
      "name": "sideOfVote",
      "outputs": [
        {
          "internalType": "uint256",
          "name": "",
          "type": "uint256"
        }
      ],
      "stateMutability": "view",
      "type": "function"
    },
    {
      "inputs": [],
      "name": "totalShares",
      "outputs": [
        {
          "internalType": "uint256",
          "name": "",
          "type": "uint256"
        }
      ],
      "stateMutability": "view",
      "type": "function"
    },
    {
      "inputs": [
        {
          "internalType": "address",
          "name": "",
          "type": "address"
        },
        {
          "internalType": "bytes32",
          "name": "",
          "type": "bytes32"
        }
      ],
      "name": "votes",
      "outputs": [
        {
          "internalType": "bool",
          "name": "",
          "type": "bool"
        }
      ],
      "stateMutability": "view",
      "type": "function"
    },
    {
      "inputs": [
        {
          "internalType": "uint256",
          "name": "amount",
          "type": "uint256"
        }
      ],
      "name": "deposit",
      "outputs": [],
      "stateMutability": "nonpayable",
      "type": "function"
    },
    {
      "inputs": [
        {
          "internalType": "uint256",
          "name": "amount",
          "type": "uint256"
        }
      ],
      "name": "withdraw",
      "outputs": [],
      "stateMutability": "nonpayable",
      "type": "function"
    },
    {
      "inputs": [
        {
          "internalType": "bytes32",
          "name": "proposalHash",
          "type": "bytes32"
        }
      ],
      "name": "createProposal",
      "outputs": [],
      "stateMutability": "nonpayable",
      "type": "function"
    },
    {
      "inputs": [
        {
          "internalType": "enum DAO.SIDE",
          "name": "side",
          "type": "uint8"
        },
        {
          "internalType": "bytes32",
          "name": "proposalHash",
          "type": "bytes32"
        }
      ],
      "name": "vote",
      "outputs": [],
      "stateMutability": "nonpayable",
      "type": "function"
    },
    {
      "inputs": [
        {
          "internalType": "bytes32",
          "name": "proposalHash",
          "type": "bytes32"
        }
      ],
      "name": "changeVote",
      "outputs": [],
      "stateMutability": "nonpayable",
      "type": "function"
    },
    {
      "inputs": [
        {
          "internalType": "bytes32",
          "name": "proposalHash",
          "type": "bytes32"
        }
      ],
      "name": "timeLeft",
      "outputs": [
        {
          "internalType": "uint256",
          "name": "",
          "type": "uint256"
        }
      ],
      "stateMutability": "view",
      "type": "function"
    },
    {
      "inputs": [
        {
          "internalType": "uint256",
          "name": "noOfShares",
          "type": "uint256"
        }
      ],
      "name": "changeMinSharesToCreateProposal",
      "outputs": [],
      "stateMutability": "nonpayable",
      "type": "function"
    },
    {
      "inputs": [
        {
          "internalType": "uint256",
          "name": "newVotingPeriod",
          "type": "uint256"
        }
      ],
      "name": "changeVotingPeriod",
      "outputs": [],
      "stateMutability": "nonpayable",
      "type": "function"
    },
    {
      "inputs": [
        {
          "internalType": "address",
          "name": "newOwner",
          "type": "address"
        }
      ],
      "name": "changeOwner",
      "outputs": [],
      "stateMutability": "nonpayable",
      "type": "function"
    }
  ],
  "bytecode": "0x608060405268056bc75e2d6310000060025562093a806003553480156200002557600080fd5b50604051620022cb380380620022cb83398181016040528101906200004b91906200013d565b806000806101000a81548173ffffffffffffffffffffffffffffffffffffffff021916908373ffffffffffffffffffffffffffffffffffffffff16021790555033600160006101000a81548173ffffffffffffffffffffffffffffffffffffffff021916908373ffffffffffffffffffffffffffffffffffffffff160217905550506200016f565b600080fd5b600073ffffffffffffffffffffffffffffffffffffffff82169050919050565b60006200010582620000d8565b9050919050565b6200011781620000f8565b81146200012357600080fd5b50565b60008151905062000137816200010c565b92915050565b600060208284031215620001565762000155620000d3565b5b6000620001668482850162000126565b91505092915050565b61214c806200017f6000396000f3fe608060405234801561001057600080fd5b50600436106101165760003560e01c806372079c98116100a2578063b957e51511610071578063b957e515146102d0578063ce7c2ac2146102ee578063cf1e603b1461031e578063ef7f84071461034e578063fc8116601461036a57610116565b806372079c981461025c5780638da5cb5b1461027a578063a6f9dae114610298578063b6b55f25146102b457610116565b806332ed5b12116100e957806332ed5b12146101a157806338032862146101d65780633a98ef39146102065780635832cf59146102245780635e1b7adc1461024057610116565b806305268cff1461011b5780631db5ade8146101395780632542bf06146101695780632e1a7d4d14610185575b600080fd5b610123610386565b604051610130919061169c565b60405180910390f35b610153600480360381019061014e9190611730565b6103aa565b604051610160919061178b565b60405180910390f35b610183600480360381019061017e91906117a6565b6103d9565b005b61019f600480360381019061019a9190611809565b6105c8565b005b6101bb60048036038101906101b691906117a6565b610657565b6040516101cd969594939291906118da565b60405180910390f35b6101f060048036038101906101eb91906117a6565b6106c0565b6040516101fd919061193b565b60405180910390f35b61020e610750565b60405161021b919061193b565b60405180910390f35b61023e60048036038101906102399190611809565b610756565b005b61025a60048036038101906102559190611809565b610831565b005b6102646108de565b604051610271919061193b565b60405180910390f35b6102826108e4565b60405161028f9190611956565b60405180910390f35b6102b260048036038101906102ad9190611971565b61090a565b005b6102ce60048036038101906102c99190611809565b610a3f565b005b6102d8610a4c565b6040516102e5919061193b565b60405180910390f35b61030860048036038101906103039190611971565b610a52565b604051610315919061193b565b60405180910390f35b61033860048036038101906103339190611730565b610a6a565b604051610345919061193b565b60405180910390f35b610368600480360381019061036391906119c3565b610a8f565b005b610384600480360381019061037f91906117a6565b610bf7565b005b60008054906101000a900473ffffffffffffffffffffffffffffffffffffffff1681565b60046020528160005260406000206020528060005260406000206000915091509054906101000a900460ff1681565b600254600760003373ffffffffffffffffffffffffffffffffffffffff1673ffffffffffffffffffffffffffffffffffffffff16815260200190815260200160002054101561045d576040517f08c379a000000000000000000000000000000000000000000000000000000000815260040161045490611a86565b60405180910390fd5b6000801b6006600083815260200190815260200160002060000154146104b8576040517f08c379a00000000000000000000000000000000000000000000000000000000081526004016104af90611af2565b60405180910390fd5b6040518060c001604052808281526020013373ffffffffffffffffffffffffffffffffffffffff16815260200160008152602001600081526020014281526020016000600281111561050d5761050c611863565b5b815250600660008381526020019081526020016000206000820151816000015560208201518160010160006101000a81548173ffffffffffffffffffffffffffffffffffffffff021916908373ffffffffffffffffffffffffffffffffffffffff16021790555060408201518160020155606082015181600301556080820151816004015560a08201518160050160006101000a81548160ff021916908360028111156105bd576105bc611863565b5b021790555090505050565b80600760003373ffffffffffffffffffffffffffffffffffffffff1673ffffffffffffffffffffffffffffffffffffffff16815260200190815260200160002054101561064a576040517f08c379a000000000000000000000000000000000000000000000000000000000815260040161064190611b5e565b60405180910390fd5b6106543382610d5d565b50565b60066020528060005260406000206000915090508060000154908060010160009054906101000a900473ffffffffffffffffffffffffffffffffffffffff16908060020154908060030154908060040154908060050160009054906101000a900460ff16905086565b60008060066000848152602001908152602001600020905060035481600401546106ea9190611bad565b421061072b576040517f08c379a000000000000000000000000000000000000000000000000000000000815260040161072290611c75565b60405180910390fd5b42600354826004015461073e9190611bad565b6107489190611c95565b915050919050565b60085481565b600160009054906101000a900473ffffffffffffffffffffffffffffffffffffffff1673ffffffffffffffffffffffffffffffffffffffff163373ffffffffffffffffffffffffffffffffffffffff16146107e6576040517f08c379a00000000000000000000000000000000000000000000000000000000081526004016107dd90611d15565b60405180910390fd5b60006003549050816003819055507f0157f874643e34dea2d71607bde6378f09880b59546f9e2386608eb7154b89758183604051610825929190611d35565b60405180910390a15050565b600160009054906101000a900473ffffffffffffffffffffffffffffffffffffffff1673ffffffffffffffffffffffffffffffffffffffff163373ffffffffffffffffffffffffffffffffffffffff16146108c1576040517f08c379a00000000000000000000000000000000000000000000000000000000081526004016108b890611d15565b60405180910390fd5b670de0b6b3a7640000816108d59190611d5e565b60028190555050565b60025481565b600160009054906101000a900473ffffffffffffffffffffffffffffffffffffffff1681565b600160009054906101000a900473ffffffffffffffffffffffffffffffffffffffff1673ffffffffffffffffffffffffffffffffffffffff163373ffffffffffffffffffffffffffffffffffffffff161461099a576040517f08c379a000000000000000000000000000000000000000000000000000000000815260040161099190611d15565b60405180910390fd5b6000600160009054906101000a900473ffffffffffffffffffffffffffffffffffffffff16905081600160006101000a81548173ffffffffffffffffffffffffffffffffffffffff021916908373ffffffffffffffffffffffffffffffffffffffff1602179055507fb532073b38c83145e3e5135377a08bf9aab55bc0fd7c1179cd4fb995d2a5159c8183604051610a33929190611db8565b60405180910390a15050565b610a493382610eb4565b50565b60035481565b60076020528060005260406000206000915090505481565b6005602052816000526040600020602052806000526040600020600091509150505481565b60006006600083815260200190815260200160002090506000801b81600001541415610af0576040517f08c379a0000000000000000000000000000000000000000000000000000000008152600401610ae790611e2d565b60405180910390fd5b6003548160040154610b029190611bad565b4210610b43576040517f08c379a0000000000000000000000000000000000000000000000000000000008152600401610b3a90611e99565b60405180910390fd5b60001515600460003373ffffffffffffffffffffffffffffffffffffffff1673ffffffffffffffffffffffffffffffffffffffff168152602001908152602001600020600084815260200190815260200160002060009054906101000a900460ff16151514610be7576040517f08c379a0000000000000000000000000000000000000000000000000000000008152600401610bde90611f05565b60405180910390fd5b610bf2338484610fc8565b505050565b60006006600083815260200190815260200160002090506000801b81600001541415610c58576040517f08c379a0000000000000000000000000000000000000000000000000000000008152600401610c4f90611e2d565b60405180910390fd5b60011515600460003373ffffffffffffffffffffffffffffffffffffffff1673ffffffffffffffffffffffffffffffffffffffff168152602001908152602001600020600084815260200190815260200160002060009054906101000a900460ff16151514610cfc576040517f08c379a0000000000000000000000000000000000000000000000000000000008152600401610cf390611f71565b60405180910390fd5b6003548160040154610d0e9190611bad565b4210610d4f576040517f08c379a0000000000000000000000000000000000000000000000000000000008152600401610d4690611e99565b60405180910390fd5b610d5933836112b1565b5050565b80600760008473ffffffffffffffffffffffffffffffffffffffff1673ffffffffffffffffffffffffffffffffffffffff1681526020019081526020016000206000828254610dac9190611c95565b925050819055508060086000828254610dc59190611c95565b9250508190555060008060009054906101000a900473ffffffffffffffffffffffffffffffffffffffff1673ffffffffffffffffffffffffffffffffffffffff1663a9059cbb84846040518363ffffffff1660e01b8152600401610e2a929190611f91565b6020604051808303816000875af1158015610e49573d6000803e3d6000fd5b505050506040513d601f19601f82011682018060405250810190610e6d9190611fe6565b905080610eaf576040517f08c379a0000000000000000000000000000000000000000000000000000000008152600401610ea69061205f565b60405180910390fd5b505050565b60008054906101000a900473ffffffffffffffffffffffffffffffffffffffff1673ffffffffffffffffffffffffffffffffffffffff166323b872dd8330846040518463ffffffff1660e01b8152600401610f119392919061207f565b6020604051808303816000875af1158015610f30573d6000803e3d6000fd5b505050506040513d601f19601f82011682018060405250810190610f549190611fe6565b5080600760008473ffffffffffffffffffffffffffffffffffffffff1673ffffffffffffffffffffffffffffffffffffffff1681526020019081526020016000206000828254610fa49190611bad565b925050819055508060086000828254610fbd9190611bad565b925050819055505050565b60006006600083815260200190815260200160002090506001600460008673ffffffffffffffffffffffffffffffffffffffff1673ffffffffffffffffffffffffffffffffffffffff168152602001908152602001600020600084815260200190815260200160002060006101000a81548160ff0219169083151502179055506000600181111561105c5761105b611863565b5b83600181111561106f5761106e611863565b5b141561117a57600760008573ffffffffffffffffffffffffffffffffffffffff1673ffffffffffffffffffffffffffffffffffffffff168152602001908152602001600020548160020160008282546110c89190611bad565b925050819055506000600560008673ffffffffffffffffffffffffffffffffffffffff1673ffffffffffffffffffffffffffffffffffffffff16815260200190815260200160002060008481526020019081526020016000208190555060326008546064836002015461113b9190611d5e565b61114591906120e5565b11156111795760018160050160006101000a81548160ff0219169083600281111561117357611172611863565b5b02179055505b5b60018081111561118d5761118c611863565b5b8360018111156111a05761119f611863565b5b14156112ab57600760008573ffffffffffffffffffffffffffffffffffffffff1673ffffffffffffffffffffffffffffffffffffffff168152602001908152602001600020548160030160008282546111f99190611bad565b925050819055506001600560008673ffffffffffffffffffffffffffffffffffffffff1673ffffffffffffffffffffffffffffffffffffffff16815260200190815260200160002060008481526020019081526020016000208190555060326008546064836003015461126c9190611d5e565b61127691906120e5565b11156112aa5760028160050160006101000a81548160ff021916908360028111156112a4576112a3611863565b5b02179055505b5b50505050565b6000600660008381526020019081526020016000209050600060018111156112dc576112db611863565b5b600560008573ffffffffffffffffffffffffffffffffffffffff1673ffffffffffffffffffffffffffffffffffffffff16815260200190815260200160002060008481526020019081526020016000205414156114a75760018081111561134657611345611863565b5b600560008573ffffffffffffffffffffffffffffffffffffffff1673ffffffffffffffffffffffffffffffffffffffff168152602001908152602001600020600084815260200190815260200160002081905550600760008473ffffffffffffffffffffffffffffffffffffffff1673ffffffffffffffffffffffffffffffffffffffff168152602001908152602001600020548160030160008282546113ed9190611bad565b92505081905550600760008473ffffffffffffffffffffffffffffffffffffffff1673ffffffffffffffffffffffffffffffffffffffff168152602001908152602001600020548160020160008282546114479190611c95565b925050819055506032600854606483600301546114649190611d5e565b61146e91906120e5565b11156114a25760028160050160006101000a81548160ff0219169083600281111561149c5761149b611863565b5b02179055505b611618565b600060018111156114bb576114ba611863565b5b600560008573ffffffffffffffffffffffffffffffffffffffff1673ffffffffffffffffffffffffffffffffffffffff168152602001908152602001600020600084815260200190815260200160002081905550600760008473ffffffffffffffffffffffffffffffffffffffff1673ffffffffffffffffffffffffffffffffffffffff168152602001908152602001600020548160030160008282546115629190611c95565b92505081905550600760008473ffffffffffffffffffffffffffffffffffffffff1673ffffffffffffffffffffffffffffffffffffffff168152602001908152602001600020548160020160008282546115bc9190611bad565b925050819055506032600854606483600201546115d99190611d5e565b6115e391906120e5565b11156116175760018160050160006101000a81548160ff0219169083600281111561161157611610611863565b5b02179055505b5b505050565b600073ffffffffffffffffffffffffffffffffffffffff82169050919050565b6000819050919050565b600061166261165d6116588461161d565b61163d565b61161d565b9050919050565b600061167482611647565b9050919050565b600061168682611669565b9050919050565b6116968161167b565b82525050565b60006020820190506116b1600083018461168d565b92915050565b600080fd5b60006116c78261161d565b9050919050565b6116d7816116bc565b81146116e257600080fd5b50565b6000813590506116f4816116ce565b92915050565b6000819050919050565b61170d816116fa565b811461171857600080fd5b50565b60008135905061172a81611704565b92915050565b60008060408385031215611747576117466116b7565b5b6000611755858286016116e5565b92505060206117668582860161171b565b9150509250929050565b60008115159050919050565b61178581611770565b82525050565b60006020820190506117a0600083018461177c565b92915050565b6000602082840312156117bc576117bb6116b7565b5b60006117ca8482850161171b565b91505092915050565b6000819050919050565b6117e6816117d3565b81146117f157600080fd5b50565b600081359050611803816117dd565b92915050565b60006020828403121561181f5761181e6116b7565b5b600061182d848285016117f4565b91505092915050565b61183f816116fa565b82525050565b61184e816116bc565b82525050565b61185d816117d3565b82525050565b7f4e487b7100000000000000000000000000000000000000000000000000000000600052602160045260246000fd5b600381106118a3576118a2611863565b5b50565b60008190506118b482611892565b919050565b60006118c4826118a6565b9050919050565b6118d4816118b9565b82525050565b600060c0820190506118ef6000830189611836565b6118fc6020830188611845565b6119096040830187611854565b6119166060830186611854565b6119236080830185611854565b61193060a08301846118cb565b979650505050505050565b60006020820190506119506000830184611854565b92915050565b600060208201905061196b6000830184611845565b92915050565b600060208284031215611987576119866116b7565b5b6000611995848285016116e5565b91505092915050565b600281106119ab57600080fd5b50565b6000813590506119bd8161199e565b92915050565b600080604083850312156119da576119d96116b7565b5b60006119e8858286016119ae565b92505060206119f98582860161171b565b9150509250929050565b600082825260208201905092915050565b7f53686172657320746f6f206c6f7720746f206372656174652070726f706f736160008201527f6c00000000000000000000000000000000000000000000000000000000000000602082015250565b6000611a70602183611a03565b9150611a7b82611a14565b604082019050919050565b60006020820190508181036000830152611a9f81611a63565b9050919050565b7f50726f706f73616c20616c726561647920657869737400000000000000000000600082015250565b6000611adc601683611a03565b9150611ae782611aa6565b602082019050919050565b60006020820190508181036000830152611b0b81611acf565b9050919050565b7f53686172657320746f6f206c6f77000000000000000000000000000000000000600082015250565b6000611b48600e83611a03565b9150611b5382611b12565b602082019050919050565b60006020820190508181036000830152611b7781611b3b565b9050919050565b7f4e487b7100000000000000000000000000000000000000000000000000000000600052601160045260246000fd5b6000611bb8826117d3565b9150611bc3836117d3565b9250827fffffffffffffffffffffffffffffffffffffffffffffffffffffffffffffffff03821115611bf857611bf7611b7e565b5b828201905092915050565b7f54696d6520616c7265616479206f76657220666f7220766f74696e67206f6e2060008201527f746869732070726f706f73616c00000000000000000000000000000000000000602082015250565b6000611c5f602d83611a03565b9150611c6a82611c03565b604082019050919050565b60006020820190508181036000830152611c8e81611c52565b9050919050565b6000611ca0826117d3565b9150611cab836117d3565b925082821015611cbe57611cbd611b7e565b5b828203905092915050565b7f4f6e6c79204f776e657200000000000000000000000000000000000000000000600082015250565b6000611cff600a83611a03565b9150611d0a82611cc9565b602082019050919050565b60006020820190508181036000830152611d2e81611cf2565b9050919050565b6000604082019050611d4a6000830185611854565b611d576020830184611854565b9392505050565b6000611d69826117d3565b9150611d74836117d3565b9250817fffffffffffffffffffffffffffffffffffffffffffffffffffffffffffffffff0483118215151615611dad57611dac611b7e565b5b828202905092915050565b6000604082019050611dcd6000830185611845565b611dda6020830184611845565b9392505050565b7f50726f706f73616c20646f65736e277420657869737400000000000000000000600082015250565b6000611e17601683611a03565b9150611e2282611de1565b602082019050919050565b60006020820190508181036000830152611e4681611e0a565b9050919050565b7f566f74696e6720706572696f64206f7665720000000000000000000000000000600082015250565b6000611e83601283611a03565b9150611e8e82611e4d565b602082019050919050565b60006020820190508181036000830152611eb281611e76565b9050919050565b7f416c726561647920766f74656400000000000000000000000000000000000000600082015250565b6000611eef600d83611a03565b9150611efa82611eb9565b602082019050919050565b60006020820190508181036000830152611f1e81611ee2565b9050919050565b7f596f7520686176656e2774206576656e20766f7465642074696c6c206e6f7700600082015250565b6000611f5b601f83611a03565b9150611f6682611f25565b602082019050919050565b60006020820190508181036000830152611f8a81611f4e565b9050919050565b6000604082019050611fa66000830185611845565b611fb36020830184611854565b9392505050565b611fc381611770565b8114611fce57600080fd5b50565b600081519050611fe081611fba565b92915050565b600060208284031215611ffc57611ffb6116b7565b5b600061200a84828501611fd1565b91505092915050565b7f5472616e73666572204661696c65640000000000000000000000000000000000600082015250565b6000612049600f83611a03565b915061205482612013565b602082019050919050565b600060208201905081810360008301526120788161203c565b9050919050565b60006060820190506120946000830186611845565b6120a16020830185611845565b6120ae6040830184611854565b949350505050565b7f4e487b7100000000000000000000000000000000000000000000000000000000600052601260045260246000fd5b60006120f0826117d3565b91506120fb836117d3565b92508261210b5761210a6120b6565b5b82820490509291505056fea264697066735822122038e20790dac94de355b4d08b922f145b9fdbeac185184244f5e41d47ae277c0064736f6c634300080a0033",
  "immutableReferences": {},
  "source": "pragma solidity 0.8.10;\r\nimport \"@openzeppelin/contracts/token/ERC20/IERC20.sol\";\r\n\r\ncontract DAO{\r\n    IERC20 public govToken;\r\n    address public owner;\r\n    constructor(address _govToken) public{\r\n        govToken = IERC20(_govToken);\r\n        owner = msg.sender;\r\n    }\r\n\r\n    enum SIDE{SUPPORT, REJECT}\r\n    enum STATUS{UNDECIDED, APPROVED, REJECTED}\r\n    struct Proposal{\r\n        bytes32 hash;\r\n        address author;\r\n        uint votesSUPPORT;\r\n        uint votesREJECT;\r\n        uint createdAt;\r\n        STATUS status;\r\n    }\r\n    //Min shares one must possess to create a proposal\r\n    uint public MIN_SHARES_TO_CREATE_PROPOSAL = 100 * 10 ** 18;\r\n    //Time period in which a proposal must be voted on\r\n    uint public TIME_PERIOD = 7 days;\r\n    //Checking if an address has voted on a proposal\r\n    mapping(address => mapping(bytes32 => bool)) public votes;\r\n    //To know if a user has voted yes or no on a specific proposal.\r\n    mapping(address => mapping(bytes32 => uint)) public sideOfVote; \r\n    //Mapping to get proposals by hash\r\n    mapping(bytes32 => Proposal) public proposals;\r\n    //Mapping to find how many shares an address has\r\n    mapping(address => uint) public shares;\r\n    uint public totalShares;\r\n    \r\n    //Function to deposit their shares to the contract in order to vote\r\n    function deposit(uint amount) external{\r\n        _deposit(msg.sender, amount);\r\n    }\r\n    function _deposit(address depositer,uint amount) private{\r\n        govToken.transferFrom(depositer, address(this), amount);\r\n        shares[depositer] += amount;\r\n        totalShares += amount;\r\n    }\r\n\r\n    //Funtion for users to withdraw their shares\r\n    function withdraw(uint amount) external{\r\n        require(shares[msg.sender] >= amount, \"Shares too low\");\r\n        _withdraw(msg.sender, amount);\r\n    }\r\n\r\n    function _withdraw(address recepient, uint amount) private{\r\n        shares[recepient] -= amount;\r\n        totalShares -= amount;\r\n        bool sent = govToken.transfer(recepient, amount);  \r\n        require(sent, \"Transfer Failed\");\r\n    }\r\n\r\n    //Function to create proposal\r\n    function createProposal(bytes32 proposalHash) external{\r\n        //Checking if address is eligible to create proposals\r\n        require(\r\n            shares[msg.sender] >= MIN_SHARES_TO_CREATE_PROPOSAL, \r\n            \"Shares too low to create proposal\"\r\n            );\r\n        //Checking if proposal already exist\r\n        require(\r\n            proposals[proposalHash].hash == bytes32(0), \r\n            \"Proposal already exist\"\r\n            );\r\n        //Creating proposal\r\n        proposals[proposalHash] = Proposal(\r\n                                        proposalHash, \r\n                                        msg.sender, \r\n                                        0,\r\n                                        0,\r\n                                        block.timestamp, \r\n                                        STATUS.UNDECIDED);\r\n    }\r\n\r\n    //Function for voting\r\n    function vote(SIDE side, bytes32 proposalHash) external{\r\n        Proposal storage proposal = proposals[proposalHash];\r\n        require(\r\n            proposal.hash != bytes32(0), \r\n            \"Proposal doesn't exist\"\r\n            );\r\n        require(\r\n            block.timestamp < proposal.createdAt + TIME_PERIOD, \r\n            \"Voting period over\"\r\n            );\r\n        require(\r\n            votes[msg.sender][proposalHash] == false, \r\n            \"Already voted\"\r\n            );\r\n        _vote(msg.sender, side, proposalHash);\r\n    }\r\n\r\n    function _vote(address voter, SIDE side, bytes32 proposalHash) private{\r\n        Proposal storage proposal = proposals[proposalHash];\r\n        votes[voter][proposalHash] = true;\r\n        if(side == SIDE.SUPPORT){\r\n            proposal.votesSUPPORT += shares[voter];\r\n            sideOfVote[voter][proposalHash] = 0;\r\n            if((proposal.votesSUPPORT * 100/ totalShares) > 50){\r\n                proposal.status = STATUS.APPROVED;\r\n            }\r\n        }\r\n        if(side == SIDE.REJECT){\r\n            proposal.votesREJECT += shares[voter];\r\n            sideOfVote[voter][proposalHash] = 1;\r\n            if((proposal.votesREJECT * 100/ totalShares) > 50){\r\n                proposal.status = STATUS.REJECTED;\r\n            }\r\n        }\r\n\r\n    }\r\n\r\n    //Function to change vote\r\n    function changeVote(bytes32 proposalHash) external{\r\n        Proposal storage proposal = proposals[proposalHash];\r\n        require(\r\n            proposal.hash != bytes32(0),\r\n            \"Proposal doesn't exist\"\r\n        );\r\n        require(\r\n            votes[msg.sender][proposalHash] == true,\r\n            \"You haven't even voted till now\"\r\n        );\r\n        require(\r\n            block.timestamp < proposal.createdAt + TIME_PERIOD,\r\n            \"Voting period over\"\r\n        );\r\n        _changeVote(msg.sender, proposalHash);\r\n    }\r\n\r\n    function _changeVote(address voter, bytes32 proposalHash) private{\r\n        Proposal storage proposal = proposals[proposalHash];\r\n        //If side is support\r\n        if(sideOfVote[voter][proposalHash] == uint(SIDE.SUPPORT)){\r\n            sideOfVote[voter][proposalHash] = uint(SIDE.REJECT);\r\n            proposal.votesREJECT += shares[voter];\r\n            proposal.votesSUPPORT -= shares[voter];\r\n            if((proposal.votesREJECT * 100/ totalShares) > 50){\r\n                proposal.status = STATUS.REJECTED;\r\n            }\r\n        }\r\n        //If side is reject\r\n        else{\r\n            sideOfVote[voter][proposalHash] = uint(SIDE.SUPPORT);\r\n            proposal.votesREJECT -= shares[voter];\r\n            proposal.votesSUPPORT += shares[voter];\r\n            if((proposal.votesSUPPORT * 100/ totalShares) > 50){\r\n                proposal.status = STATUS.APPROVED;\r\n            }\r\n        }\r\n    }\r\n\r\n    //Function to see time remaining for proposal to be voted on\r\n    function timeLeft(bytes32 proposalHash) external view returns(uint){\r\n        Proposal storage proposal = proposals[proposalHash];\r\n        require(\r\n            block.timestamp < proposal.createdAt + TIME_PERIOD,\r\n            \"Time already over for voting on this proposal\"\r\n            );\r\n        return (proposal.createdAt + TIME_PERIOD - block.timestamp);\r\n    }\r\n\r\n    //function to change min no of shares to vote\r\n    function changeMinSharesToCreateProposal(\r\n        uint noOfShares) \r\n        external \r\n        onlyOwner{\r\n            MIN_SHARES_TO_CREATE_PROPOSAL = noOfShares*10**18;\r\n    }\r\n\r\n    //Function to change voting period\r\n    function changeVotingPeriod(uint newVotingPeriod) external onlyOwner{\r\n        uint oldVotingPeriod = TIME_PERIOD;\r\n        TIME_PERIOD = newVotingPeriod;\r\n        emit VotingPeriodChanged(oldVotingPeriod, newVotingPeriod);\r\n    }\r\n    \r\n    \r\n    //function to change owner\r\n    function changeOwner(address newOwner) external onlyOwner{\r\n        address oldOwner = owner;\r\n        owner = newOwner;\r\n        emit OwnerChanged(oldOwner, newOwner);\r\n    }\r\n\r\n    modifier onlyOwner{\r\n        require(\r\n            msg.sender == owner,\r\n            \"Only Owner\"\r\n        );\r\n        _;\r\n    }\r\n\r\n    event OwnerChanged(address oldOwner, address newOwner);\r\n    event VotingPeriodChanged(uint oldVotingPeriod, uint newVotingPeriod);\r\n}",
  "sourcePath": "C:\\Users\\Shivam Agrawal\\Desktop\\Solidity-Development\\DAO\\contracts\\DAO.sol",
  "compiler": {
    "name": "solc",
    "version": "0.8.10+commit.fc410830.Emscripten.clang"
  },
  "schemaVersion": "3.4.3",
  "updatedAt": "2021-12-19T10:17:27.726Z",
  "devdoc": {
    "kind": "dev",
    "methods": {},
    "version": 1
  },
  "userdoc": {
    "kind": "user",
    "methods": {},
    "version": 1
  }
}